:020000040000FA
:10000000A84F0020ED010000F5010000F7010000FD
:1000100000000000000000000000000000000000E0
:1000200000000000000000000000000009020000C5
:1000300000000000000000000B0200000D020000A4
:100040000F0200000F0200000F0200000F0200006C
:100050000F0200000F0200000F0200000F0200005C
:100060000F0200000F0200000F0200000F0200004C
:100070000F0200000F0200000F0200000F0200003C
:100080000F0200000F0200000F0200000F0200002C
:100090000F0200000F0200000F0200000F0200001C
:1000A0000F0200000F0200000F0200000F0200000C
:1000B0000F0200000F0200000F0200000F020000FC
:1000C000397A00000F0200000F0200000F0200004A
:1000D0000F0200000F0200000F0200000F020000DC
:1000E0000F0200000F020000F54E00000F0200009A
:1000F0000F0200000F0200000F0200000F020000BC
:100100000F0200000F0200000F0200000F020000AB
:100110000F0200000F0200000F0200000F0200009B
:100120000F0200000F0200000F0200000F0200008B
:100130000F0200000F0200000F0200000F0200007B
:100140000F0200000F0200000F0200000F0200006B
:100150000F0200000F0200000F0200000F0200005B
:100160000F0200000F0200000F0200000F0200004B
:100170000F0200000F0200000F0200000F0200003B
:100180000F0200000F0200000F0200000F0200002B
:100190000F0200000F0200000F0200000F0200001B
:1001A0000F0200000F0200000F0200000F0200000B
:1001B0000F0200000F0200000F0200000F020000FB
:1001C0000F0200000F0200000F0200000F020000EB
:1001D0000F0200000F0200000348854600F00CFDEE
:1001E0000048004729A40000A84F00200C48804781
:1001F0000C480047FEE77046EFF30881EFF30982F1
:10020000094B98470047FEE7FEE7FEE7FEE7FEE7FB
:10021000ABBE064B7446984720477046F047000037
:1002200019770000D9010000FD5F00000D73000088
:10023000F8B500242546002904DA0E4601240021E1
:100240004042B141002B04DA1E46002352420125F0
:10025000B34100F06FFB8C4617461E46AC4203D0FC
:10026000002540428D41AC46002C02D0002657426A
:100270009E4161463A46334601B0F0BD30B5434336
:1002800051435C18010C130C0D465D432C1980B2D0
:1002900092B20546554351430A0C09044D19624177
:1002A0005843010C00044019514130BDD2B201E065
:1002B0000270401C491EFBD270470022F6E710B5C1
:1002C00013460A4604461946FFF7F0FF204610BDC4
:1002D000421C0178401C0029FBD1801A704702465D
:1002E00070B54A40D30FDB0740002DD04A002AD01A
:1002F000010E140E000212020919400A520A841853
:10030000E50104465443000A120A2E045043A4197E
:100310004219200CC543AA18120C0125AD03521C2A
:10032000521912047F39240400D0521C104301D406
:100330004000491EC2B20C06C0092018401C4008EB
:10034000802A02D003E0002070BD40084000002950
:1003500000DA0020184370BD70B502464A40D50F40
:1003600040004A00ED0740085208002814D0002A37
:1003700012D0C40DD30D41020120C0055202490A1A
:10038000520AE41A091812187D34914201D3641CF0
:1003900000E04900002C01DA002070BD00239142EA
:1003A00001D3891A0343400849000028F7D10029E6
:1003B0000AD0914202D10121C90705E0914201D240
:1003C000012101E00121C943E005C018401900F0F6
:1003D00015FB70BDF0B507460846584087B0C00F02
:1003E000049048000E46590040084908BC1A88414C
:1003F00005D2384631461E4617460B46024658007F
:10040000400810434CD0300D039040055900400D7A
:10041000490D0590401A0290402872DA1803012114
:10042000000B09050843019004980092002805D0AC
:100430000199524200208841009201900298402187
:100440000A1A0199009800F0A5FA05460C466B4679
:1004500007CB00F0C0FAC0197141039A0E0D0023BA
:10046000D71756401A467A40164344D0049A002AB9
:100470002DD0029A012A039A15DC1205C01A914167
:1004800001263605001C7141D20F059ED20700934C
:10049000019202962A46234600F0FEFA07B0F0BD0C
:1004A00038463146FAE71605224A0F46B218C01AF6
:1004B000B74101210905001C4F4100187F41114639
:1004C00018187941E20F10436D19644113E0E207F7
:1004D0006D0815436408C2071443039A01261205E8
:1004E000C01A91413605001C7141CE0740083043C7
:1004F0004908C01851412A46234600F0C0FACDE70A
:10050000FFE7049801224000C117121A00238B4113
:1005100004983146C417381AA141EEE730B40124DB
:10052000E407634030BC55E730B40124E407614080
:1005300030BC4FE70000E0FFF0B51FB488B00B9966
:100540000998002448400999C00F490049080991B9
:10055000C0070B990090490049080B910999089828
:10056000A64608431CD00B990A98084318D009984E
:1005700001244000420D4800410D09982405000364
:10058000000B204309900B980003000B20430B90B5
:1005900050181C494018002201901446104605E0EE
:1005A000002001460DB0F0BD032801DA034600E04B
:1005B00003239C46C11A0AAE0AE05F0008ADED5B5A
:1005C0004F00F75B7D430027AA187C41491C5B1E46
:1005D0006145F2DD410004AB5A522104120C0A437A
:1005E000240C401C0828DFDB01980290009970461B
:1005F00001910090059B049A0799069800F04CFA27
:10060000D0E700000DFCFFFFF0B50C465C4085B064
:10061000E40FE40703944C00002664085900944654
:10062000490802460296224321D062460A431ED060
:100630006200570D4A000E032303550D01240246A4
:100640002C492405781B1B0B360B401823432643EB
:10065000614600901C46501AB44103D30098401CD8
:10066000009002E0921800985B41002803DA002015
:10067000014605B0F0BD0020012109050746864668
:1006800011E064461D46141BB54106D36546521B56
:10069000B341744607430C43A646CD0740084908BA
:1006A000284392185B4105460D43EAD11046184392
:1006B00013D06046194650407140084306D060464A
:1006C000101AB34106D20122002306E000220123C2
:1006D000DB0702E00122D243531000987446010563
:1006E000381C6141029C039D0019694100F0C7F963
:1006F000BFE70000FD0300000122D207002800DB55
:10070000101A002900DB511A814201D801207047DC
:10071000002070470122D207002800DB101A0029B0
:1007200000DB511A814201D201207047002070473E
:100730000122D207002800DB101A002900DB511A21
:10074000814201D301207047002070470122D20767
:10075000002800DB101A002900DB511A814201D960
:10076000012070470020704710B5002904DB0C46BB
:100770000121C9074042A141002B04DB1C46012393
:10078000DB075242A341801A994101D3012010BDD9
:10079000002010BD10B5002904DB0C460121C9075B
:1007A0004042A141002B04DB1C460123DB075242DF
:1007B000A341101A8B4101D2012010BD002010BDB1
:1007C00010B5002904DB0C460121C9074042A141B4
:1007D000002B04DB1C460123DB075242A341801A95
:1007E000994101D2012010BD002010BD10B5002993
:1007F00004DB0C460121C9074042A141002B04DB68
:100800001C460123DB075242A34142404B401A439E
:1008100001D0002010BD012010BDC217C10F5040F3
:1008200010B54018CA079623002100F0EFF810BD5C
:100830000EB5C217C10F5040CA0740180021054B22
:100840000293019200910A460B4600F025F903B08D
:1008500000BD000033040000C20F4100400201232C
:10086000400ADB05D207090EC0187F2901DA0020F3
:100870007047962903DC9623591AC84001E096393F
:100880008840002AF4D040427047000070B5CD0F78
:100890004A0009030123090B1B0519430B4BED0704
:1008A0000024520D9A4201DA002070BD074B343308
:1008B0009A4203DC9A1A00F07DF802E004495118CC
:1008C00088402C43F1D0404270BD0000FF0300007F
:1008D000CDFBFFFFC20FD207400040080BD0C10D77
:1008E0000723DB01C91840020905400A1143C20869
:1008F000400711437047002001467047CB0FDB07CC
:10090000490010B5490802460A4307D00A0D0724DA
:100910000903E401090B121B002A01DC002010BDB1
:10092000C900440F0C43C100E018D205801800F044
:1009300065F810BDF0B51FB40646002082B005462C
:100940004024019100901BE0019922460F46304659
:1009500000F030F8049A059B801A994110D3104694
:100960001946224600F016F8361A8F4101972246A2
:1009700001200021009F00F00DF838184D41009033
:100980002046641E0028DFDC019B00982946324681
:1009900007B0F0BD10B5202A04DB0146203A914093
:1009A000002010BD914020239C1A0346E3401943C8
:1009B000904010BD10B5202A04DB0846203AD040F4
:1009C000002110BD0B46D340D0402024A21A9140F4
:1009D0000843194610BD10B5202A06DBCB17084680
:1009E000203A1041C1170B4306E00B461341D0409B
:1009F0002024A21A91400843194610BD002904DAA8
:100A0000401C490001D140084000704770B40024E8
:100A1000050C05D11024000402D1002921D0112495
:100A2000050E01D100020834050F01D10001241D7B
:100A3000850F01D18000A41C002801DB4000641C4C
:100A4000002908D020252E1B0D46F540A14000D0DE
:100A500001212943084301061B1B000ADB1D02D5A7
:100A6000002070BC7047DB05181880180029F8DAE0
:100A7000401C4900F5D170BC40084000704710B5DB
:100A8000002B08DA0024401C614192185B411A4394
:100A900001D14008400010BDF0B51FB482B005463A
:100AA0000C0003D008460DF059F802E00DF056F89E
:100AB00020300246009021462846FFF76BFF049B3A
:100AC000059A04460F4618431143084314D01846AC
:100AD00010431BD0009840210A1A18460599FFF7C9
:100AE00069FF05460E46009A05990498FFF752FFE4
:100AF000084305D0012004E02046394607B0F0BD88
:100B00000020C11705430E432C43374300990E982C
:100B10006305401A7905E40A00220C43FD0A0A30F5
:100B200002D500200146E9E70105101969410C9C36
:100B30000D9D00196941FFF7A2FFDFE770B54B007B
:100B40005B0803430BD04B005C0D00263346654227
:100B5000B341D417AD1AA34102DB0020014670BD9A
:100B600012053018514170BD4A0009030123090BD9
:100B70001B0519430A4B10B5520D9A4202DA0020A8
:100B8000014610BD064B34339A4203DC9A1AFFF734
:100B900011FF10BD034BD218FFF7FCFE10BD000083
:100BA000FF030000CDFBFFFF10B5002904DB01248B
:100BB000E40740428C412146002B04DB1C46012304
:100BC000DB075242A3418B4200D1824210BD00009C
:100BD00010B5002904DB0124E40740428C41214682
:100BE000002B04DB1C460123DB075242A341994240
:100BF00000D1904210BD00001CB509480090094882
:100C0000019005460126009C05E0E36807CC3343CC
:100C10000C3C98471034AC42F7D3FFF7E1FA0000E0
:100C2000B8040100D804010070B50446002903D0BF
:100C300000202022012310E0002801D00020C04322
:100C4000C046C0460DE02546D5408D4205D30D4631
:100C50009540641B1D46954040191546521E002DB7
:100C6000F1DC214670BDFEB500231A461B1A8A41ED
:100C700003DB0020014603B0F0BD4A000D03012153
:100C80002D0B0905520D0D43D10702D100186D41FE
:100C9000521E5110FF31FF310131002704463E46FC
:100CA0003846009701910246012100200905FFF70F
:100CB00081FEC3197141F818324684468E464A4176
:100CC00061462846611A904104D36046241A954132
:100CD00076461F46241900986D41401C0090342828
:100CE000E1DDF91930467041091BA84103D2002209
:100CF000D243134601E00022134601980105381C37
:100D00007141FFF7BCFEB6E781B0009001B07047BB
:100D100083B0019000910198982140580004002868
:100D200003D4FFE70020029068E001994868102290
:100D3000904348600199842233208850019894217F
:100D40004058400400280BD4FFE7009900200860B9
:100D5000019894214058C004400D0099886011E02A
:100D6000009901200860019894214058C004C008EF
:100D70000099886001989021425800998868104332
:100D80008860FFE701989421405842F20001084032
:100D900041424841009948600198982140580F21EC
:100DA00008400099087301989C214058009A50739C
:100DB00001984058000A009988730198A021405872
:100DC000009AD07301984058000A0099087401985D
:100DD000A4214058009A507401984058000A009984
:100DE00088740198A8214058009AD07401984058FE
:100DF000000A0099087501200290FFE7029803B0ED
:100E00007047000084B00290019100200090FFE73D
:100E10000298006A000400280DD5FFE70098401CE6
:100E200000909E490968884204D9FFE70020C0432A
:100E300003908DE0ECE702994868082290434860EF
:100E40000198006850B9FFE70299002008630198F3
:100E500080684005C00C029948630EE00198008943
:100E600002990863019880683B490840000C44F2ED
:100E70000001401802994863FFE70198406838B1C3
:100E8000FFE70299486B42F200021043486306E014
:100E90000299486B42F2000290434863FFE70298D0
:100EA000806B0F2188430199097B0843029988636D
:100EB0000199887B0002497B40180299C863019917
:100EC000087C0002C97B4018029908640199887C5B
:100ED0000002497C4018029948640199087D00028B
:100EE000C97C4018029988640299086A48F2000295
:100EF000904308620298006A0004002803D5FFE7C7
:100F00000020039024E00299086A48F2000210438E
:100F1000086200200090FFE70098104988420CD832
:100F2000FFE70298006A0004002801D4FFE704E00C
:100F3000FFE70098401C0090EEE7009808498842BF
:100F400003D3FFE70020039002E001200390FFE7B6
:100F5000039804B07047C0460000FF1FFEFF0F005B
:100F6000FFFF0F0080B584B0039002A801700398C2
:100F700004F0A2FD0190022803D1FFE700200190B8
:100F8000FFE70398019B60221146594341180C204A
:100F9000486202A80078401C0399019B5A438918B3
:100FA00008620398019906F08DF904B080BD82B003
:100FB000019068460170007841210843019908605A
:100FC00002B0704782B0019068460170019A1168C2
:100FD00080231943116000780199486102B070477D
:100FE00081B0009000980C4988420ED1FFE70B4970
:100FF0000868012212061043086009490868104376
:101000000860086890430860FFE7034908682022E9
:101010001043086001B0704700000A400802004019
:101020000C00004083B0029001A8017000780F28E6
:101030000BD8FFE7029840F22011405801A90A7826
:1010400001219140084000900BE0029840F22411E9
:10105000405801A90A78103A0121914008400090B7
:10106000FFE7009803B0704782B00190B448006871
:10107000009001990868412290430860FFE70198B9
:101080000068C00738B1FFE70098401E009008B91B
:10109000FFE700E0F3E702B07047C046140000200D
:1010A00080B582B0019000910098192806D1FFE721
:1010B00001981F4A182100F047F936E000981B28D4
:1010C00006D1FFE701981A4A1A2100F03DF92BE0FA
:1010D00000981D2806D1FFE70198154A1C2100F051
:1010E00033F920E000981F2806D1FFE70198104A45
:1010F0001E2100F029F915E00098172806D1FFE716
:1011000001980B4A162100F01FF90AE000981528F3
:1011100006D1FFE70198064A142100F015F9FFE710
:10112000FFE7FFE7FFE7FFE7FFE702B080BDC0464C
:101130004847002080B584B0039002910192039843
:10114000029900F029F900900198012805D1FFE7E4
:1011500003980421FFF736FFFFE7009804B080BD35
:10116000B0B58EB00591014605980C910BA9087099
:101170000AA80270099372480068400006900C9813
:101180000978FFF74FFF18B9FFE700200D90D3E073
:101190000C9804F091FC0146C8B208AA117002280C
:1011A00003D1FFE700200D90C6E00C99486810229B
:1011B000904348600AA801787F207B220392049024
:1011C00009B90398049004980C9908AB1D78602223
:1011D00014466C43091948620BA80078401C0C990E
:1011E0001B785A4389180862FFE70C9808A90A7807
:1011F000602151434018006A000400280FD5FFE722
:101200000698401E069048B9FFE70C9808A909788F
:1012100006F058F80020C0430D908DE0E5E70C98EB
:1012200008A90A78602151434018406B4004002807
:1012300010D4FFE70999002008600C9808A90A78E3
:10124000602151434018406B3E490840800809998D
:10125000886019E00999012008600C9808AA1478A0
:1012600060210B466343C018406BC004C008079060
:101270000C98127851434018016B07980843079067
:10128000079809998860FFE70C9808A901910C78E4
:101290006022029213466343C018806B0F231840EC
:1012A000099B18730C980C7813466343C018C06BE5
:1012B000099B58730C980C7813466343C018C06B95
:1012C000000A099B98730C980C7813466343C01866
:1012D000006C099BD8730C980C7813466343C018B4
:1012E000006C000A099B18740C980C781346634331
:1012F000C018406C099B58740C980C7813466343D3
:10130000C018406C000A099B98740C980C7813461E
:101310006343C018806C099BD8740C980B785A43AF
:101320008018806C000A099A10750C98097805F0ED
:10133000C9FF01200D90FFE70D980EB0B0BDC0466B
:1013400014000020FC1F000080B586B004900391BB
:101350000292049800688021084001900498406936
:10136000042108400090019848B1FFE7009830B18F
:10137000FFE704980299FFF7CBFC059008E004987A
:1013800003A90978029B0122FFF7EAFE0590FFE717
:10139000059806B080BD000010B598B01790169162
:1013A000844814900021049113911291119110918D
:1013B0000E910D910C9140F2E8300B900A9107913B
:1013C0000691012005901798FFF7F1FD00F0AEFCA3
:1013D00004990791069016987749884203D3FFE74E
:1013E00075481690FFE716987449884203D3FFE7C3
:1013F000754809900CE016987149884204D3FFE7BC
:1014000040F22030099002E06E480990FFE7FFE7C4
:1014100031200E90FFE70E98062800DA87E00E983C
:10142000C10F40184010401C0F900698029007987A
:1014300003900F98C117169AD317FEF71FFF0246A5
:1014400002980B460399FEF7F3FE0E99CA0F8A180D
:1014500001239A43891A401810901098012861DBE3
:10146000FFE7109840F2004188425BDCFFE70698F6
:101470000090079801901098C1170F9AD317FEF7A4
:10148000FDFE024600980B460199FEF7D1FE15902D
:1014900016981599401A13901398002804D5FFE761
:1014A000139840421390FFE713981499884238DC50
:1014B000FFE713981490139850BBFFE709980E9913
:1014C000CA0F891849100DAA0CAB08F005F80A904C
:1014D00009980A99401A13901398002804D5FFE739
:1014E000139840421390FFE713980B9988420EDC43
:1014F000FFE713980B900E98C10F40184010129000
:1015000010981190139808B9FFE710E0FFE707E083
:101510000E98C10F40184010129010981190FFE7DC
:10152000FFE7FFE7FFE70E98401E0E9073E709986C
:1015300012990DAA0CAB07F0CFFF0A900598052869
:1015400003D3FFE704200590FFE70C980599884234
:1015500003DAFFE70C980590FFE706980799119BBF
:101560000D9A0C9C1219521C5A43D317FEF760FEB9
:1015700016900C98000341F20001401A0D990902DF
:1015800040F20012891A08431199491E3F22114066
:1015900040180599890108431799C8601198401EA1
:1015A0008005000F179988611798FFF75DFD169861
:1015B00018B010BD00CA9A3B40420F0001350C0024
:1015C00021A107006B030000EE02000010B588B0F7
:1015D000069005910492039300200290FFE706987D
:1015E00005A9097804AA1278039B0124009400F04D
:1015F00013F850B9FFE70298401C0290000F18B191
:10160000FFE70020079003E0E9E701200790FFE7EC
:10161000079808B010BD0000B0B588B004460C981B
:10162000069405AC217004A90A70039302A90870FE
:10163000069804F041FA0146C8B201AA11700228C6
:1016400003D1FFE70020079084E0069801A90A78FB
:10165000602151434118F320486204A80078A8B9DA
:10166000FFE7069801AB1C786022114661434118E0
:101670000020086303984005C00C48F200014018A0
:1016800006991B785A438918486316E003A8008816
:10169000069901AB1D78602214466C430919086352
:1016A00003982E490840000C4CF20001401806999E
:1016B0001B785A4389184863FFE7069801A90A78FE
:1016C00060215143411841F20040886302A800782C
:1016D00058B1FFE7069801A90A78602151434118E3
:1016E000886B8022104388630AE0069801A90A7873
:1016F000602151434118886B802290438863FFE743
:10170000069801A90C7860231A46624382180020CB
:10171000D063069A0D781C466C4312191064069A21
:101720000D781C466C4312195064069A0D781C46BD
:101730006C431219906405A80078401C069A0C7836
:101740006343D21810620698097805F0BBFD0120AA
:101750000790FFE7079808B0B0BDC0460000FF1F24
:10176000B0B586B0049003910292049804F0A4F9F5
:101770000146C8B201AA1170022803D1FFE7002078
:10178000059098E0049801A90A7860215143411816
:10179000F320486202980068B0B9FFE7049801ABF3
:1017A0001C786022114661434118002008630298AA
:1017B00080684005C00C4AF20001401804991B786B
:1017C0005A438918486314E002980089049901ABD0
:1017D0001D78602214466C430919086302984089F9
:1017E0004EF20001084304991B785A438918486354
:1017F000FFE70298406860B1FFE7049801A90A7802
:10180000602151434118486B42F200021043486383
:101810000BE0049801A90A78602151434118486BF4
:1018200042F2000290434863FFE70299887B00027E
:10183000497B4018049A01A90D7860231C466C432B
:101840001219D063029A107C0002D27B8018049A8D
:101850000D781C466C4312191064029A907C0002A9
:10186000527C8018049A0D781C466C4312195064FF
:10187000029A107D0002D27C8018049A0D781C46D2
:101880006C43121990640298007B0C4A1043049A2E
:101890000D781C466C43121990630398401C049AFF
:1018A0000C786343D21810620498097805F00AFD99
:1018B00001200590FFE7059806B0B0BD80880000C4
:1018C00080B586B00490039102920498006880214C
:1018D0000840019004984069042108400090019854
:1018E00048B1FFE7009830B1FFE704980299FFF78D
:1018F00089FA059011E004980399029AFFF730FFE6
:1019000018B9FFE70020059007E00498039900F05C
:1019100007F8FFE701200590FFE7059806B080BDB6
:1019200010B586B004900391B34800680190049804
:1019300004F0C2F80146C8B202AA1170022803D10D
:10194000FFE70020059046E004994868082290438C
:101950004860049802AB1C7860221146614341182C
:101960000C2048620398401C04991B785A4389183C
:101970000862FFE7049802A90A78602151434018E1
:10198000006A000400280FD5FFE70198401E01906F
:1019900048B9FFE7049802A9097805F093FC0020F4
:1019A000C043059017E0E5E7049802A90C7860238E
:1019B0001A4662438218842050620398401C049A9D
:1019C0000C786343D21810620498097805F07AFC09
:1019D00001200590FFE7059806B010BD834908680F
:1019E00001221204104308607047C04683B0029081
:1019F00000200190009002991F20014001208840A2
:101A00000190074800900298800F810000984018CC
:101A10000090019A009908681043086003B070476D
:101A20000402004082B00190009113490020086038
:101A30000198042806D1FFE70F49086804221043E3
:101A400008600CE0B749086838229043019A1043B7
:101A5000086009490868042290430860FFE700987D
:101A60000649086006490020086003490868032207
:101A70001043086002B0704710E000E014E000E09E
:101A800018E000E081B00090009A03490868104314
:101A9000086001B07047C04600020040B0B592B087
:101AA000504907A83CC93CC03CC93CC0D248019041
:101AB0004D480068022108400090D0480068069018
:101AC00006A880780521084204D0FFE74849002095
:101AD000086037E006A880780007002803D5FFE7F4
:101AE000C748059002E0C6480590FFE706A8807841
:101AF0008007002804D5FFE705983D49086020E0ED
:101B000006A80088810B01A840180078029006986A
:101B1000BC490840801C0490069843F600610840C8
:101B2000400A401C039005988008049948434000EF
:101B3000039A02995143B0FBF1F080002C490860F0
:101B4000FFE7FFE7D348006807210840109010988E
:101B5000012821D1FFE7009830B9FFE72249086842
:101B6000022210430860FFE72248006800060028B0
:101B700004D5FFE747F60050119003E048F200005B
:101B80001190FFE7009830B9FFE717490868022273
:101B900090430860FFE70EE01098022804D1FFE7A9
:101BA00013480068119005E01098810007A840587C
:101BB0001190FFE7FFE7E04800680F210840401C54
:101BC0000F9011980F99B0FBF1F164480160016822
:101BD0000A4A89180A4AB1FBF2F1E74A1160006823
:101BE00012B0B0BD28F300000802004040020040DF
:101BF00010000020001104401400002020A1070064
:101C000040420F0087B006900020059004901021FC
:101C10000391082102910421019100900698800A05
:101C20000006A8B1FFE706A841880C2001406846DD
:101C30004058C149401804900498006806998A0ADF
:101C4000D2B28905C90E8A401040C8400590FFE70E
:101C5000059807B07047C04687B0069000200590F1
:101C600004900C210391082102910421019100901C
:101C700006982849884206D1FFE72B4800680121D1
:101C80000840059043E006982349884207D1FFE7C2
:101C900025480068022108404008059036E0069873
:101CA0001E49884208D1FFE71F48006840F2001132
:101CB0000840000A059028E006981949884208D192
:101CC000FFE71948006840F200210840400A0590EB
:101CD0001AE006980001400FA8B1FFE70698810EB0
:101CE0000C200140684640589449401804900498DC
:101CF000006806990A01520FC901C90E8A401040B6
:101D0000C8400590FFE7FFE7FFE7FFE7FFE705981B
:101D100007B07047100000801100008012000080A2
:101D200013000080100200401802004080B505F04A
:101D3000D9FCBE4800680A49096807221140C8401A
:101D400080BDC04680B505F0CDFCB84800680449A8
:101D50000968702211400909C84080BD14000020A4
:101D60003402004087B000200690234800902348AA
:101D70000068059005A880780521084203D0FFE798
:101D80000020069035E005A880780007002803D5DC
:101D9000FFE71B48049002E019480490FFE705A8FC
:101DA00080788007002803D5FFE7049806901FE09D
:101DB00005A80088810B68464018007801900598B6
:101DC00010490840801C0390059843F600610840C4
:101DD000400A401C02900498800803994843400040
:101DE000029A01995143B0FBF1F080000690FFE7A1
:101DF000FFE7069807B07047010202044002004066
:101E0000001BB700FF01000080B584B00390029171
:101E1000874801681020014001911D4A1168042380
:101E20001943116000F0E6F844490868072210439E
:101E300008601949086840F20012904308603E4962
:101E400008680F229043029A1043086003980528FF
:101E500009D1FFE71049086840F2031210430C2231
:101E600090430860FFE73549086807229043039ACA
:101E70001043086005F036FC019830B9FFE70449CB
:101E80000868042290430860FFE704B080BDC046A4
:101E900000020040100200404CC000408DB00C9089
:101EA0000B910A920020099008900C2107910822BA
:101EB000069204210591049010230393029201914C
:101EC00000900C98800A0006B8B1FFE70CA8418882
:101ED0000C2001406846405817494018089008985F
:101EE00000680C9A910AC9B29205D20E91408843BB
:101EF0000A99084308990860FFE70C980001400F11
:101F0000B8B1FFE70C98810E0C20014004A840589E
:101F10000A4940180990099800680C9A1101490F64
:101F2000D201D20E914088430B9908430999086069
:101F3000FFE70DB07047C04620020040100200408D
:101F400081B00090009927480068484326490860FE
:101F5000264900200860264905200860FFE724483C
:101F60000068C003002801D4FFE7F8E720490020FB
:101F7000086001B07047C0460400002082B00190A4
:101F8000012000040090FFE701980099884205D9DC
:101F9000FFE700990198401A019004E00198009031
:101FA00000200190FFE700990E48006848430E4961
:101FB00008600E49002008600D4905200860FFE711
:101FC0000B480068C003002801D4FFE7F8E7084980
:101FD00000200860FFE701980028D5D1FFE702B094
:101FE0007047C0460400002014E000E018E000E064
:101FF00010E000E083B002900C480068C008019037
:1020000001200090FFE70A480068029908408842D2
:1020100009D0FFE70198401E019018B9FFE70020A2
:10202000009000E0EFE7009803B070471400002034
:102030005002004086B00590049103A80270002071
:10204000029001900090FFE7029803A90978884266
:102050000ADAFFE704980299415C01984018019060
:102060000298401C0290EFE70198092190FBF1F2E1
:102070005143401A0090009806B0704710B5DCB08C
:102080005B905A9159935892002025905790569002
:102090005590549053905290519050904F904E9034
:1020A0004D904C904B904A90499048904790469064
:1020B0004590449043904290419040903F903E9094
:1020C0003D903C903B903A903990389037903690C4
:1020D0003590349033903290319030902F902E90F4
:1020E0002D902C902B902A90299028902790269024
:1020F0005A98072859D1FFE7F1485590F148549074
:10210000F1484590F1484490F1483590F1483490B9
:10211000F1495391F1495291F1494391F149429169
:10212000F1493391F1493291F1495191F14950917D
:10213000F14941914090F1483190F1483090F14897
:102140004F90F1484E90F1493F91F1483E90F14A4D
:102150002F92F14A2E92F14A4D92F14A4C923D91C2
:102160003C90F0482D90F0482C90F0484B90F0486F
:102170004A90F0483B90F0483A90F0482B90F04855
:102180002A90F0494991F0494891F0493991F04934
:102190003891F04929912890002047904690379037
:1021A00036902790269000F073FC5A980A285BD14D
:1021B000FFE7E9485590E9485490E9484590E948D7
:1021C0004490E9483590C3483490E8485390E84833
:1021D0005290E8484390E8484290E8483390E848F5
:1021E0003290E8485190E8485090E8484190E848DB
:1021F0004090E8483190E8483090E8484F90E848EF
:102200004E90E8493F91E8483E90E84A2F92E84ACC
:102210002E92E84A4D92E84A4C923D913C90E74814
:102220002D90E7482C90E7484B90E7484A90E748C4
:102230003B90E7483A90E7482B90E7482A90E748D8
:102240004990E7484890E7483990E7483890E74890
:102250002990E74828900020479046903790369084
:102260002790269000F013FC5A9810285CD1FFE7C5
:10227000E0485590E0485490E0484590E04844904C
:10228000E0483590C8483490DF485390DF4852907A
:10229000DF4843908D484290DE483390DE483290CC
:1022A000DE485190DE485090DE484190DE48409034
:1022B000DE483190DE483090DE484F90DE484E9048
:1022C000DE483F90DE483E90DE482F90DE482E905C
:1022D000DE484D90DE484C90DE483D9096483C905C
:1022E000DD482D90DD482C90DD484B90BC484A904D
:1022F000DC483B9079483A90DB482B90DB482A90A9
:10230000DB484990DB484890DB483990DB483890FF
:10231000DB482990DB482890002047904690379072
:10232000369027902690B1E35A9816285FD1FFE7A0
:10233000D5485590D5485490D5484590D5484490B7
:10234000D5483590A6483490D4485390D4485290FC
:10235000D4494391D4494291D4493391D4493291DB
:10236000D4495191D4495091D4494191D449409193
:10237000D4493191D4493091D4494F91D4494E91A7
:10238000D4493F91D4493E914F492F914F492E91C5
:10239000D2494D91D2494C91D2493D91D2493C917B
:1023A00092492D9192492C91FD494B917A494A913C
:1023B000FC4A3B92FC4A3A92764A2B922A91FB497C
:1023C00049914890FA483990FA483890FA4829904B
:1023D000FA482890FA484790FA484690FA483790C9
:1023E000FA483690FA482790FA4826904DE35A98D2
:1023F00019285FD1FFE7F848559073485490F74883
:102400004590F7484490F749359163493491F6492E
:10241000539169495291F5494391F5494291F549E2
:10242000339189493291002151915091F249419162
:10243000F2494091F2493191F2493091F2494F917C
:10244000F2494E91F2493F91F2493E91F2492F9162
:10245000F2492E91F2494D91F2494C91F2493D9148
:102460004B493C91F1492D91F1492C91F1494B9106
:10247000F1494A91F1493B91F1493A9180492B91B7
:1024800080492A91EF4949914890EF483990EF48A7
:102490003890EF482990EF482890EF484790EF4850
:1024A0004690EF483790EF483690EF482790EF4836
:1024B0002690E9E25A98212800D027E216E1C0468A
:1024C000D70B6040A4703D0A51DA6B3F5F07CE190D
:1024D000984C753F94F6065F45E6504083C0CAA10C
:1024E000BD52863F3411363CBF7D6D3F92CB7F4855
:1024F000560E004075931804984C853F040C3E3FDF
:10250000334D1A9B93A840C07F6ABC74065F883F16
:10251000744694F6A5F8313F999891EEE70B414047
:1025200096438B6C6C6B333FCEE68AB52D72404080
:102530001904560E098A8F3FD200DE02BC05623FA5
:102540002F6EA301430B1A402506819585EB913F21
:10255000EC51B81EBC05523FCA8151406F1283C076
:1025600097FF803F8F537424984C653FB0225540AD
:10257000A69BC4209AE68D3F9F3C2CD4BCE3743FBD
:1025800088855AD383C032408D976E1206F0863FFD
:10259000C7BAB88DBDC1673FE09C11A5286C61C06A
:1025A0005C8FC2F57268913F9CC420B0E0743E3FDE
:1025B00040BEC6265C9F61408FC2F52804093F3F9C
:1025C000271973B668014140C520B072AACF953F64
:1025D000E4839ECDE2366A3F2D431CEBE1FA3340A3
:1025E0007B14AE47F44A993FD044D8F00434613F9D
:1025F000158C4AEA147E5940AE47E17AE4838E3F57
:1026000032E6AE257268813F0EA5524093180456FB
:1026100051DA9B3F75717B3F5396218EA3921E40EA
:1026200018265305ADD89F3F9B559FAB7493583FD9
:10263000FA7E6ABCCC4C2740CDCCCCCC3B4EA13FE3
:1026400058A835CDE09C713F22FDF675E3940EC08D
:10265000865AD3BC098A9F3F69D24A3FC45EE6438B
:10266000E19A454045B6A33FE258773FD42B651920
:1026700026D13640FED478E97424A73F4DF38E531B
:10268000E4F26F3FDE718A8ED4584D4046B6F3FDBA
:10269000E00B933FCE88D2DEE17A743FC2217540D1
:1026A000F6285C8F3EE8993F63EE5A42F2B0903FC5
:1026B000C5FEB27B1C9A4140273108AC33A2A43F2F
:1026C000E0BE0E9C4D62803FFCA9F1D2E61D1A408F
:1026D0003D2CD49A60E5A03F4C3789411B6D2040CA
:1026E000228E757161C3A33FA54E4013604855907B
:1026F00060485490604845906048449060483590E8
:1027000060483490604853906048529060484390CD
:1027100060484290604833906049329160485190DF
:10272000002050905F4A41925F4A40925F4A319246
:102730005F4A30925F4A4F925F4A4E925F4A3F92A1
:102740005F4A3E925F4A2F925F4A2E925F4A4D92B5
:102750005F4A4C925F4A3D925F4A3C925F4A2D929B
:102760002C915F494B915F494A915F493B915F4989
:102770003A915F492B915F492A915F4949913749C5
:1027800048915E4939915E4938915E4929915E4987
:10279000289147904690379036902790269072E186
:1027A000BD6122C07346A43FF5DBD781C2C575C0A9
:1027B00061A1A63FFE65F7E4EC9EAC3F575BB1BF5D
:1027C000F5607640295C8FC25A64AB3F3108AC1C7F
:1027D0002A18953F0EBE309968D14F403D0A973F69
:1027E0000AD7A370BDC1773F5CFF67401648A03F82
:1027F000B98D06F0E09C913F1726A33F12A5BDC1FD
:10280000FE6EF73ED179B8DD15FBFD3FB3EA73B537
:10281000FC87A43F9CA223B908AC6C3F79E9263120
:1028200028EDFF3FB003E78C06F0A63F2AA9633FDF
:10283000613255306D450C40DAACFA5C4603A83F76
:1028400088635DDC3D0275C036ABAE3F97900F7A72
:10285000C64BA73FB29DEFA77A20774014AE47E161
:10286000643BAF3F08AC1C5A3FC69C3FBC051214EA
:1028700028FC4C405C8FC2F588639D3F4FAF946548
:1028800075717B3F5396218EC490544054E3A59BB1
:10289000EA04A43F4D158C4A06F0863FC7BAB88DAE
:1028A00000C0304050FCA83F07F0164807CE793FE3
:1028B00020D26F5FD79366C0A4703D0A8D06B03FEB
:1028C00011C7BAB8BCE3843F88855AD333B30A40F2
:1028D000333333331A2FAD3FC976BE9F06F0663FC0
:1028E000A3186E40713D0AD7C9E5AF3FBDE3141D83
:1028F0002BF6873F67D5E76A7A343840D8F0B43F83
:10290000A913D044764F7E3FACADD85F5A9841288A
:102910005ED1FFE7F2485590F2485490F248459056
:10292000F2484490F2483590F2483490F24853907F
:10293000F2485290F2484390F2484290F248339065
:10294000F2483290002051905090F1484190F14867
:102950004090F1483190F1483090F1484F90F14863
:102960004E90F1483F90F1483E90F1492F91F14847
:102970002E90F14A4D92F14A4C92F14A3D92F14A21
:102980003C92F14A2D92F14A2C92F14A4B92F14A33
:102990004A92F14A3B92F14A3A922B912A90F0489E
:1029A0004990F0484890F0483990F0483890F04805
:1029B0002990F0482890F0484790F0484690F04819
:1029C0003790F0483690F0482790F048269059E02C
:1029D000EF485590EF485490EF484590EF484490A9
:1029E000EF483590EF483490EF485390EF485290BD
:1029F000EF484390EF484290EF483390EF483290D1
:102A0000EF485190EF485090EF484190EF48409088
:102A1000EF483190EF483090EF494F91EF494E9198
:102A2000EF493F91EF493E91EF492F91EF492E91A8
:102A3000EF494D91EF494C91EF493D91EF493C9160
:102A4000EF492D912C90EF494B91EF494A91EF4975
:102A50003B91EF493A91EF492B912A90EE484990EA
:102A6000EE484890EE483990EE483890EE4829906C
:102A7000EE48289000204790469037903690279057
:102A80002690FFE7FFE7FFE7FFE7FFE7FFE7FFE746
:102A9000559807905498069058985999449A459B90
:102AA000FDF73CFD349A359BFDF7AEFD0122019206
:102AB00093071E93002224920BF0B4FE019AD207D2
:102AC0001F9251400BF070FD0490059153980390B4
:102AD0005298029058985999429A439BFDF71EFDCF
:102AE000329A339BFDF790FD1E9B249A0BF09AFEC1
:102AF0001F9A51400BF058FD024602980B4603996D
:102B0000FDF71AFD049A059B0446069808940C46A6
:102B100007990994FDF710FD089A099BFDF75AFCE7
:102B20000C900D9151980B9050980A905898599983
:102B3000409A419BFDF7F2FC309A319BFDF764FD12
:102B40001E9B249A0BF06EFE1F9A51400BF02CFD39
:102B500002460A980B460B99FDF7EEFC0C9A0D9B6A
:102B6000FDF738FC109011914F980F904E980E90F1
:102B7000589859993E9A3F9BFDF7D0FC2E9A2F9B6F
:102B8000FDF742FD1E9B249A0BF04CFE1F9A51400C
:102B90000BF00AFD02460E980B460F99FDF7CCFC90
:102BA000109A119BFDF716FC149015914D981390F7
:102BB0004C981290589859993C9A3D9BFDF7AEFC61
:102BC0002C9A2D9BFDF720FD1E9B249A0BF02AFECC
:102BD0001F9A51400BF0E8FC024612980B461399DD
:102BE000FDF7AAFC149A159BFDF7F4FB18901991B8
:102BF0004B9817904A981690589859993A9A3B9B37
:102C0000FDF78CFC2A9A2B9BFDF7FEFC1E9B249A59
:102C10000BF008FE1F9A51400BF0C6FC02461698B6
:102C20000B461799FDF788FC189A199BFDF7D2FB04
:102C30001C901D9149981B9048981A905898599942
:102C4000389A399BFDF76AFC289A299BFDF7DCFC32
:102C50001E9B249A0BF0E6FD1F9A51400BF0A4FC3A
:102C600002461A980B461B99FDF766FC1C9A1D9BA1
:102C7000FDF7B0FB22902391479821904698209031
:102C800058985999369A379BFDF748FC269A279B06
:102C9000FDF7BAFC1E9B249A0BF0C4FD1F9A51400D
:102CA0000BF082FC024620980B462199FDF744FC6C
:102CB000229A239BFDF78EFB249A579156905698A3
:102CC00057995B4BFDF750FD28B9FFE758485790DF
:102CD00000205690FFE7569857995CB010BDC0464B
:102CE000E773514096438B6C91EDAC3F21B0726815
:102CF000BF7D8D3F92CB7F483DF271400AD7A370D4
:102D0000A59BB43FCFF753E38FC2A53FC3F5285C23
:102D10006B9AB73F7CF2B050A3F6EB3E65B76E01FD
:102D2000839EF03FE6AE25E4D478B93F46B6F3FD86
:102D30002AA9833F61325530287EFE3F03780B2459
:102D4000832FBC3F3A234A7B2B87763FBA490C023C
:102D5000E23613402D431CEBF1D2BD3F6DE7FBA9DA
:102D6000D7DB80C0A4703D0A8D06C03F11C7BAB83A
:102D70008104B53FDC68006FAE9F804048E17A1463
:102D8000CBEEC13F74B515FB1214AF3FA301BC05D8
:102D9000A3485640713D0AD7764F8E3FACADD85F01
:102DA000E02D803F76711B0D028B55405EBA490CB9
:102DB000F6979D3FD5E76A2B2A18853F0EBE3099BE
:102DC000ED0DFBBF04E78C280434A13F158C4AEAC3
:102DD000E2363A3F2D431CEB1B9E0F4075029A08CA
:102DE0004ED1A13FA835CD3B2AA9433F6132553092
:102DF0003F240440151DC9E5E926A13FF4FDD47820
:102E0000E2364A3FB24D414004560E2DAACFA53FAF
:102E1000E4839ECDE2367A3F5C4F34408FC2F52882
:102E2000F44AA93FD044D8F029CB703F091B9E5EDD
:102E300000005940F0B5FFB088B086900020619046
:102E40008590849083907B907A9079907890779019
:102E500076907590749073A908708698007981288F
:102E600024DBFFE7869840797F281FDCFFE7F349E2
:102E7000012008708699F24A89580860FFE7869811
:102E8000EF4940588069012109070840000F08B93F
:102E9000FFE7F4E786990120C870EA49002008702E
:102EA0008699E94A88508699887050E0869800791A
:102EB000012829D1FFE786984079812824DBFFE7A4
:102EC000869880797F281FDCFFE7DC4901200870A5
:102ED0008699DB4A89580860FFE78698D8494058A8
:102EE0008069012109070840000F08B9FFE7F4E7EE
:102EF00086990120C870D349002008708699D24A6B
:102F000088508699887021E086980079E8B1FFE7BB
:102F10008699CD4A8858401C88508698C84941589F
:102F200000200860FFE78698C54940588069012164
:102F300009070840000F08B9FFE7F4E78699002069
:102F4000C870869906208870FFE7FFE7FFE7BB4956
:102F500000200870BD480078012800D03AE1BC4844
:102F60000078012800D035E10020729071A9088016
:102F7000839086988179642048438699CA790A218A
:102F8000514340188699097A4018FDF751FC5B902F
:102F90005C918698407AFDF74BFCAE4AAE4BFDF74C
:102FA000CBFA5B9A5C9BFDF715FA5D905E91869873
:102FB000807AFDF73DFCA94AA94BFDF7BDFA5D9A61
:102FC0005E9BFDF707FA5F9060918698C07AFDF7E7
:102FD0002FFCA44AA44BFDF7AFFA5F9A609BFDF764
:102FE000F9F9FDF78BFC8390869840790A282DD05B
:102FF000FFE7869840790B2828D0FFE783989B4904
:10300000FDF76DF9FDF728FC71A9088098485A90E2
:1030100081220270042242708270869A1279C270F4
:10302000869A5279027149784171719981710721AB
:1030300009F07AFE5A9972907298C8717298000AD3
:1030400008728C48092204F069FFBFE08698407935
:103050000A2847D1FFE78698579087480068FDF710
:1030600039FC559056918398FDF734FC559A569B40
:103070000446579858940C465899019400910AF0C8
:103080007FFBFDF703FC70A9087083987749FDF773
:1030900026F9FDF7E1FB71A9088075485990812256
:1030A00002700422427006228270869A1279C270DF
:1030B000869A527902714978417171998171002122
:1030C000C17170990172092109F02EFE599972900F
:1030D000729848727298000A887266480B2204F04F
:1030E0001DFF72E0869840790B286DD1FFE7839829
:1030F00054906248007840F2F411B0FBF1F0FDF713
:103100008CFB01465498FDF705FB38B9FFE783981F
:1031100001218907FDF720F9839016E083985390E9
:103120005648007840F6A071B0FBF1F0FDF775FB52
:1031300001465398FDF70AFB30B9FFE783985049E1
:10314000FDF7CDF88390FFE7FFE7869850904B4856
:10315000007851908398FDF7BDFB024650980B46CE
:103160005199FEF78BFFFDF791FB6FA908708398CB
:103170003E49FDF7B4F8FDF76FFB71A908803C48A4
:103180005290812202700422427006228270869A36
:103190001279C270869A5279027149784171719997
:1031A00081710021C1716F990172092109F0BCFD83
:1031B00052997290729848727298000A88722D48DB
:1031C0000B2204F0ABFEFFE7FFE7FFE720490020FA
:1031D0000870FFE78698C07808B901F02DF8869846
:1031E0000AF05AFCFDF78AFB83908698417973A810
:1031F000017086990979234A117000780B2800D054
:103200004FE120480078822800D14AE11B4800782D
:10321000FDF70EFB134A1C4BFDF78EF90A461B49BE
:103220004F914A6008608398FDF754FB4F9B1A68E2
:103230005B68FDF7C5FA002866D129E0E80900209F
:10324000380C000044120020840B000045120020BE
:10325000474700209A9999999999B93F7B14AE47AD
:10326000E17A843FFCA9F1D24D62503F00007A44DC
:10327000FF43002000000740B41200207A12002013
:1032800000004040C01200204D62703FA047002067
:10329000FA480078FDF7CCFAF94AFA4BFDF74CF9F9
:1032A0000A46F9494E914A6008608398FDF712FB7F
:1032B0004E9B1A685B68FDF76DFA38B9FFE7839893
:1032C00001218907FDF748F88390FFE7EB48007874
:1032D000FDF7AEFAEA4AED4BFDF72EF90A46EA4948
:1032E0004D914A6008608398FDF7F4FA4D9B1A6887
:1032F0005B68FDF765FA30B9FFE78398E449FCF7AE
:10330000EEFF8390FFE7FFE786983890DB48007870
:1033100039908398FDF7DEFA024638980B463999C2
:10332000FEF7ACFE85918490849885997B917A9084
:103330007A987B99799178907A987B9900223C923F
:10334000D44BFDF761F9FDF7A1FA829078983A9095
:1033500079983B90829964204843FDF769FA0246C8
:103360003A980B463B99FDF7D9F83C9A79917890B9
:1033700078987999C84BFDF747F9FDF787FA81905E
:1033800078983D9079983E9081990A204843FDF7BE
:103390004FFA02463D980B463E99FDF7BFF87991EA
:1033A000789078987999FDF771FA809078983F90A5
:1033B000799840908098FDF73BFA02463F980B467B
:1033C0004099FDF7ABF87991789078987999B34A5C
:1033D0004192B34B4293FDF717F9FDF757FA7F90EF
:1033E00078984390799844907F98FDF721FA419A14
:1033F000429BFDF7A1F8024643980B464499FDF71E
:103400008DF87991789078987999A64A4592A64B4B
:103410004693FDF7F9F8FDF739FA7E9078984790D2
:10342000799848907E98FDF703FA459A469BFDF7F8
:1034300083F8024647980B464899FDF76FF8799153
:103440007890789879998E4A4992984B4A93FDF7EB
:10345000DBF8FDF71BFA7D9078984B9079984C90AB
:103460007D98FDF7E5F9499A4A9BFDF765F8024614
:103470004B980B464C99FDF751F8799178908298CA
:103480008699887181988699C87180988699087202
:103490007F98869948728698021D062104F032FEB4
:1034A0000BE073A800780E2806DCFFE78698021D63
:1034B000062104F027FEFFE7FFE786980079012840
:1034C00006D0FFE78698007981388699487045E0F4
:1034D000869840798138869948708698807973A952
:1034E00008706CA83790002101816D916C918699CC
:1034F000497901708699897941708699C979817075
:103500008699097AC1708699497A01718699897A72
:1035100041718699C97A81718699097BC1716C99CB
:10352000869A11714178869A51718178869A917143
:10353000C178869AD1716D99869A11724179869A6D
:1035400051728179869A9172C0798699C8728698EB
:103550000AF0A2FAFDF7D2F98390FFE78698407847
:1035600086990978884200D03DE2869850494058B3
:10357000504988608698407848737398887373A818
:1035800000787D2800D060E18698007D092800DA67
:103590005BE186984849097840184849405C002812
:1035A00059D1FFE78698444A11784118434B0120CE
:1035B0003690C85400206B904149359180230B70A0
:1035C00012787F231A404A707D228A70869A384B7F
:1035D000D258CA70087186980522FEF72BFD359ADD
:1035E000014636986A916A9951718699354A895887
:1035F000086035480078022811D1FFE786982C49E9
:1036000042583248349032490AF094FA3498FCF720
:103610005FFE0146349889B202F0BEFEFFE700204B
:103620006B90FFE76B98052814DCFFE76B99244843
:10363000405C28490860FFE7274800680121090726
:103640000840000F08B9FFE7F6E7FFE76B98401C5A
:103650006B90E7E7FFE773A800787D2878D1FFE754
:103660008698007A0A2873D1FFE7839886991B4AC7
:10367000885015480078022860D131E07A12002085
:10368000FCA9F1D24D62603FA04700204D62403F4F
:103690000000404000005940000024409A99999948
:1036A0009999B93F7B14AE47E17A843F4D62503F10
:1036B000B80B00004847002074470020BC0B0000F6
:1036C00068120020380C000045120020440E002033
:1036D00088FF0000004007401840074078090000BC
:1036E000F3483390F3490AF025FA339802F072FC5C
:1036F00033988699F04A30928A58F0490AF01AFABB
:10370000339802F067FC309986984058319083983E
:10371000FDF7E0F8319A0346339832930B4632991D
:1037200001930091E6490AF005FA3398FCF7D0FDC1
:103730000146339889B202F02FFEFFE78399E148F2
:1037400000F0CCFFE04900200870E0490870FFE776
:103750008698DF4909784018DE49405C002873D11B
:10376000FFE78698007D09286EDBFFE78698D84A38
:103770002B9211784118D74B01202F90C85400216B
:103780002D916991689168A980260E7012787F2525
:103790002A404A708D70869AC74C1259CA700871B7
:1037A000CD4805222C9204F0B9FB2B9B2C9A2D9826
:1037B0006790CA492E910E701B782B404B707D2369
:1037C0008B70869B1B59CB7008718698FEF732FC74
:1037D0002E9A01462F986691669951718699C04A32
:1037E00089580860BF480078022811D1FFE7869801
:1037F000B1494258AE482A90BB490AF09BF92A9831
:10380000FCF766FD01462A9889B202F0C5FDFFE784
:1038100000206790FFE76798052814DCFFE76799A9
:10382000AE48405CAC490860FFE7B0480068012141
:1038300009070840000F08B9FFE7F6E7FFE76798B8
:10384000401C6790E7E7FFE7FFE773A800780A28C6
:103850003FD1FFE783988699A54A8850A148007810
:1038600002282ED1FFE79248299092490AF062F986
:10387000299802F0AFFB299886998F4A26928A5898
:103880008E490AF057F9299802F0A4FB26998698E8
:10389000405827908398FDF71DF8279A03462998EA
:1038A00028930B4628990193009185490AF042F923
:1038B0002998FCF70DFD0146299889B202F06CFDAC
:1038C000FFE783997F4800F009FF7F4900200870D7
:1038D000FFE773A800780B2828D1FFE78398869923
:1038E00040F6801288507F480078022816D1FFE702
:1038F000869840F680114058FCF7ECFF02460B46D4
:103900006B4825907B490AF015F92598FCF7E0FCF7
:103910000146259889B202F03FFDFFE78399694887
:1039200000F0DCFE684900200870FFE773A800780B
:103930000C2826D1FFE7839886996F4A88506948FA
:103940000078022815D1FFE786986B494058FCF7AC
:10395000C1FF02460B465648249068490AF0EAF82F
:103960002498FCF7B5FC0146249889B202F014FDB6
:10397000FFE78399534800F0B1FE534900200870D7
:10398000FFE773A800780D282BD1FFE7839886996D
:103990005B4A885083994B4800F0A0FE514800785C
:1039A00002281AD1FFE78398FCF794FF02460B46E2
:1039B0003F48239053490AF0BDF82398FCF788FC50
:1039C0000146239889B202F0E7FC239839490AF0AE
:1039D000B1F8239802F0FEFAFFE73B490020087097
:1039E000FFE700F028FC8698334940583549886045
:1039F0008698407848737398887373A800780A286B
:103A000000D0AFE0869821903F480068FCF762FF45
:103A10001F9020918398FCF75DFF1F9A209B04461E
:103A2000219822940C4622990194009109F0A8FE55
:103A300065916490839886994A789200891840F23B
:103A4000D83288502748007802282BD1FFE7184841
:103A50001E9018490AF06EF81E9802F0BBFA1E98E4
:103A60008699154A8A581A4909784B1E27490AF03F
:103A700061F81E9802F0AEFA8398FCF72BFF02461D
:103A80001E980B466499659C0194009120490AF0A8
:103A900051F81E98FCF71CFC01461E9889B202F0F2
:103AA0007BFCFFE71B480068022853DB34E0C0467C
:103AB000440E0020ABF60000B80B0000DAFF000057
:103AC000C1FF0000484700200C0E002044120020D7
:103AD00074470020BC0B0000004007406812002023
:103AE000380C00004512002048FF00001840074035
:103AF0007809000006FA00007C090000A00201001D
:103B000084090000A8FF0000B41200202CF9000076
:103B1000EFF9000060120020839886994A7892009D
:103B2000891840F2D83288508699EE4C0819095904
:103B30001C9140681D908398FCF7CCFE02461C98AF
:103B40000B461D99FCF746FC0246869B18191A5134
:103B50004160FFE78399E44800F032FDE34900202B
:103B60000870FFE773A800780B2800D091E0E048C8
:103B70000078FCF75DFEDF4ADF4BFCF7DDFC0A4610
:103B8000DE491B914A6008608398FCF7A3FE1B9BEB
:103B90001A685B68FCF714FEE0BBFFE7D4480078C6
:103BA000FCF746FED34AD64BFCF7C6FC0A46D3497F
:103BB0001A914A6008608398FCF78CFE1A9B1A6879
:103BC0005B68FCF7E7FD38B9FFE7839801218907B7
:103BD000FCF7C2FB8390FFE7C5480078FCF728FE9E
:103BE000C44AC84BFCF7A8FC0A46C44919914A606C
:103BF00008608398FCF76EFE199B1A685B68FCF7F7
:103C0000DFFD30B9FFE78398BF49FCF768FB83907D
:103C1000FFE7FFE7839886994A7892008918BB4AA4
:103C2000885086981790B248007818908398FCF7CF
:103C300051FE024617980B461899FEF71FFA63913A
:103C40006290B3480078022817D1FFE78398FCF709
:103C500041FE02460B466298639901910090AD487F
:103C60001690AD4909F066FF1698FCF731FB014646
:103C7000169889B202F090FBFFE762986399FCF70F
:103C80003DFE0146984800F009FB98490020087065
:103C9000FFE773A800780C282AD1FFE7839886995C
:103CA0004A7892008918886199480078022817D1CB
:103CB000FFE786984178890040188069FCF70AFE82
:103CC00002460B4693481590944909F033FF159826
:103CD000FCF7FEFA0146159889B202F05DFBFFE79A
:103CE0008399814800F034FB804900200870FFE789
:103CF00073A800780D282ED1FFE7839886994A781B
:103D00009200891840F2B852885081480078022801
:103D100019D1FFE7869841788900401840F2B851E0
:103D20004058FCF7D7FD02460B467A4814907C4970
:103D300009F000FF1498FCF7CBFA0146149889B2F9
:103D400002F02AFBFFE78399674800F065FB6749AB
:103D500000200870FFE773A800780E2835D1FFE730
:103D6000839886994A789200891840F29872885010
:103D700067480078022820D1FFE7869841788900BB
:103D8000401840F298714058FCF7A4FD02460B46DB
:103D900060481390634909F0CDFE1398FCF798FA38
:103DA0000146139889B202F0F7FA13985E4909F0B8
:103DB000C1FE139802F00EF9FFE783994A4800F01C
:103DC00091FB4A4900200870FFE773A800785F283C
:103DD00071D1FFE7869855494158012008604C4849
:103DE0000078022837D1FFE7869851494258514858
:103DF00011900078431E474812904F4909F09AFEEF
:103E00001298FCF765FA0146129889B202F0C4FADA
:103E100011984A490A884A490B884A4909784A4C04
:103E200024784A4D2D784A4E36680778494800680C
:103E300005901298049703960295019400914649C3
:103E400009F078FE1298FCF743FA0146129889B2FD
:103E500002F0A2FAFFE73748109000788030869988
:103E600008718698F84940588699487186990F20BC
:103E70008871869901200F90C8718698021D0421CF
:103E800004F040F90F99109BF54A00201070F54A94
:103E90001170F5490870EA4AE0211170EE49088076
:103EA0001A78521C1A70F14B1A68521C1A6008805A
:103EB000EA490880FFE773A800787D2800D0B9E1BF
:103EC0008698407886990978884200D08BE0EA4845
:103ED000808801285FD1FFE7DA480078022859D1AD
:103EE0003CE0C046880B0000484700200C0E002034
:103EF0007A120020FCA9F1D24D62703FA047002049
:103F00004D62603F4D62403F000040408C09000020
:103F100045120020440E00206002010076020100DC
:103F20009202010084020100ABF60000380C000090
:103F3000B80B000046120020A2F800004A12002030
:103F400048120020541200205C1200205D12002054
:103F50000C00002060120020BE0101008698BA49C2
:103F60004258BC490878431E869809784018C149D0
:103F7000405C0090B5480E90C54909F0DBFD0E98F5
:103F800002F028F80E98B24909F0D4FD0E9802F01C
:103F900021F8FFE7FFE7B8488088022822D1FFE731
:103FA000A848007802281CD1FFE78698A649425805
:103FB000A8490878431E869809784018AD49405CA6
:103FC0000090A2480D90B34909F0B4FD0D9802F09D
:103FD00001F80D989E4909F0ADFD0D9801F0FAFF2A
:103FE000FFE7FFE722E18698A14909784118A14A35
:103FF00000208854A048808801284FDBFFE79E48B6
:104000008088012822D1FFE78E48007802281CD141
:10401000FFE786988C4942588E490878431E869857
:10402000097840189349405C009088480C90984962
:1040300009F080FD0C9801F0CDFF0C98844909F03F
:1040400079FD0C9801F0C6FFFFE7FFE78A488088FA
:10405000022822D1FFE77B48007802281CD1FFE725
:104060008698794942587B490878431E8698097892
:1040700040188049405C009074480B90854909F0D5
:1040800059FD0B9801F0A6FF0B98714909F052FDFC
:104090000B9801F09FFFFFE7FFE7C6E07648C08876
:1040A000042822D1FFE76748007802281CD1FFE7E7
:1040B00086986549425867490878431E869809786A
:1040C00040186C49405C009060480A906E4909F0C5
:1040D00031FD0A9801F07EFF0A985D4909F02AFD3A
:1040E0000A9801F077FFFFE777E06348C088082867
:1040F00022D1FFE75348007802281CD1FFE78698B9
:104100005149425853490878431E86980978401807
:104110005849405C00904D4809905A4909F00AFD01
:10412000099801F057FF0998494909F003FD0998DA
:1041300001F050FFFFE74FE04F48C088102822D120
:10414000FFE74048007802281CD1FFE786983E49E7
:10415000425840490878431E8698097840184549D6
:10416000405C009039480890454909F0E3FC089804
:1041700001F030FF0898364909F0DCFC089801F09E
:1041800029FFFFE727E03C48C088202822D1FFE72D
:104190002C48007802281CD1FFE786982A4942580B
:1041A0002C490878431E8698097840183149405CAC
:1041B000009026480790314909F0BCFC079801F0AF
:1041C00009FF0798224909F0B5FC079801F002FFA2
:1041D000FFE7FFE7FFE7FFE7FFE72748C088402842
:1041E00022D1FFE71748007802281CD1FFE7869804
:1041F0001549425817490878431E8698097840188F
:104200001C49405C009011480690204909F092FC3E
:10421000069801F0DFFE06980D4909F08BFC069820
:1042200001F0D8FEFFE7FFE7FFE7FFE71A490A20A2
:104230000870FFE7FFE7FFE77FB008B0F0BDC046BA
:104240004412002045120020B80B0000440E00204C
:10425000ABF60000744700204A12002048120020EC
:10426000541200205C1200205D1200200C0000207F
:1042700000040020BC0B0000C41200209DFC0000C4
:1042800046FD0000F2FC00009CFD000010FC000058
:10429000BDFB00006AFB00007547002080B58AB0B6
:1042A000099008910998806807900998407B0090D0
:1042B0000120029000200190BC4988680002497BDF
:1042C0004018039001A908200873009848730998C2
:1042D000807B8873009865282AD0FFE708990098AA
:1042E00082001A48815000998900405808F05CFD0E
:1042F00002200790FFE7079801A9097B88420EDAA0
:10430000FFE7079A9000AD4940180838006801A9F6
:1043100089184873FFE70798401C0790EBE7EC48C3
:10432000002101AAFDF7CCFA08B9FFE70BE0FFE78F
:10433000E94900200870E749086048608860C86063
:1043400008614861FFE70AB080BDC0460C0200204A
:1043500080B58CB00B900A910B98806803900B98F5
:10436000407B02900120059000200490D749886886
:104370000002497B4018069004A90820087302989F
:1043800048730B98807B8873029878282ADCFFE7B3
:104390000A99029882001F4881500299890040586A
:1043A00008F002FD02200390FFE7039804A9097BAF
:1043B00088420EDAFFE7039A9000C6494018083891
:1043C000006804A989184873FFE70398401C03900C
:1043D000EBE7BF48002104AAFDF772FA08B9FFE72E
:1043E00016E00AE004A8427B71480190714909F087
:1043F000A1FB0198FCF788FCFFE7B7490020087093
:10440000B449086048608860C86008614861FFE797
:104410000CB080BD0404002080B58CB00B900A91D4
:104420000B98806803900020029001210591049070
:10443000F04988680002497B4018069004A90820CA
:1044400008730B98407B0290029848730B98807B0E
:104450008873029878282ADCFFE70A99029882007C
:104460001F48815002998900405808F09DFC0220A5
:104470000390FFE7039804A9097B88420EDAFFE75F
:10448000039A9000DE4940180838006804A989188A
:104490004873FFE70398401C0390EBE7D6480021E0
:1044A00004AAFDF70DFA08B9FFE716E00AE004A830
:1044B000427B3F4801903F4909F03CFB0198FCF7E3
:1044C00023FCFFE7CF4900200870CD490860486011
:1044D0008860C86008614861FFE70CB080BDC046D5
:1044E000F805002080B58CB00B900A910B9880687D
:1044F000039000200290012105910490BD49886835
:104500000002497B4018069004A9082008730B9804
:10451000407B0290029848730B98807B88730298C6
:1045200078282ADCFFE70A99029882002248815005
:1045300002998900405808F037FC02200390FFE7F9
:10454000039804A9097B88420EDAFFE7039A9000DA
:10455000AB4940180838006804A989184873FFE778
:104560000398401C0390EBE7A348002104AAFDF741
:10457000A7F908B9FFE716E00AE004A8427B0C4857
:1045800001900C4909F0D6FA0198FCF7BDFBFFE752
:104590009C49002008709A49086048608860C8609B
:1045A00008614861FFE70CB080BDC0464847002065
:1045B000090A0020D6000100EC070020EC090020C9
:1045C00080B58AB009900891002107918948427B03
:1045D0006B461A7001220292019181680902427BA6
:1045E0008918039101AA08211173407BC8B3FFE722
:1045F0008048807BA8B3FFE77E48427B01A94A73CD
:10460000807B887368460078782829DCFFE7089863
:10461000694609788A0079498850089808F0C4FBEF
:1046200002200790FFE7079801A9097B88420EDA6C
:10463000FFE7079A9000724940180838006801A9FE
:1046400089184873FFE70798401C0790EBE76A4812
:10465000002101AAFDF734F908B9FFE734E0FFE7CC
:1046600027E06448427B01A94A73807B88736846CF
:10467000007878281CDCFFE702200790FFE7079806
:1046800001A9097B88420ADAFFE7079901A84118C6
:1046900000204873FFE70798401C0790EFE7564853
:1046A000002101AAFDF70CF908B9FFE70CE0FFE7CC
:1046B000FFE753490020086048608860C8600861CF
:1046C000486150490870FFE70AB080BD48470020A4
:1046D00000000A40EC0900200C0E002080B58AB0D2
:1046E00009900891002107914248427B6B461A705D
:1046F00001220292019181680902427B891803918B
:1047000001AA08211173407BF0B3FFE73948807B91
:10471000D0B3FFE73748427B01A94A73807B887397
:1047200068460078792805DBFFE76846007881282D
:1047300029D1FFE7314908686A461278920088500B
:10474000089808F031FB02200790FFE7079801A9BD
:10475000097B88420EDAFFE7079A90002849401843
:104760000838006801A989184873FFE70798401CBA
:104770000790EBE72048002101AAFDF7A1F808B94E
:10478000FFE734E0FFE727E01A48427B01A94A73BC
:10479000807B88736846007878281CDCFFE702205D
:1047A0000790FFE7079801A9097B88420ADAFFE72B
:1047B000079901A8411800204873FFE70798401C9B
:1047C0000790EFE70C48002101AAFDF779F808B936
:1047D000FFE70CE0FFE7FFE70949002008604860B9
:1047E0008860C8600861486106490870FFE70AB040
:1047F00080BDC0464847002000000A401800002045
:10480000EC0900200C0E0020F0B59FB01E901DA9F1
:10481000F24808801CA940F2811008801BA80021E2
:1048200001701AAA01201490107019AA1070189023
:10483000EB4A1160EB49487088700871C870EA490A
:104840000860EA480078012800D041E10120189072
:10485000FFE71898042800DD39E11898012803D1F2
:10486000FFE7E3481E901AE01898022803D1FFE7FB
:10487000E0481E9012E01898032803D1FFE7DE48B5
:104880001E900AE01898042806D1FFE7DB481E9026
:10489000D64900200870FFE7FFE7FFE7FFE71AA906
:1048A00002200870FFE71AA800781E99D44A895C94
:1048B000884212DAFFE71E981AA909784018D149F0
:1048C000405C20B9FFE719A900200870FFE7FFE767
:1048D0001A98401C1AA90870E5E71E98CA49415861
:1048E000C048405C012800D0ECE019A8007800B96D
:1048F000D5E01E98C44A8058C4490968895888423E
:104900004AD0FFE71E98BE49405C012843DBFFE721
:104910001E98BB49405C1AA90870FFE71AA80078E6
:10492000012837DBFFE71A9881301DA908701E980F
:10493000B74A8058022203F0F1FAA9490020086022
:10494000B4490860FFE7A6480068012813D0FFE7D4
:104950001E98AF494058C069C00758B1FFE71E987C
:10496000AB49405800681BA908701A98401E1AA944
:104970000870FFE7E7E71BA8007850B9FFE71A982F
:10498000401E1AA90870964900200860A1490860D5
:10499000FFE7C3E7FFE7FFE719A8007801286BD11D
:1049A000FFE79D480078022841D1FFE71E9996480D
:1049B00012900A581E990B781E990958894E715CFD
:1049C00011911E998E4D495D1E9C2478091B1E9CD9
:1049D00024581E9F3F581198F75D03970294019148
:1049E00000908E4813908E4909F0A4F8139801F0B6
:1049F000F1FA12981E990A581E990B781E990958B7
:104A0000715C1E9C645D1E9D2D78641B1E9D2D583F
:104A10001E9F3F581398F65D0396029501940091EE
:104A2000804909F087F8139801F0D4FAFFE77E4C2B
:104A300000200F9020607D4B18607D4A10607D49FA
:104A400008600120206018601060086005F03EFBDF
:104A500005F088FB05F0D2FB05F01CFC0F981E99B1
:104A6000674A109288541E9908701E9805F06AFCD7
:104A7000109A1E99885411E06748007802280CD1DA
:104A8000FFE766480E906C4909F054F80E9801F063
:104A9000A1FA6A4900200870FFE7F7E111E05E48DB
:104AA000007802280CD1FFE75C480D90F84909F026
:104AB00041F80D9801F08EFA604900200870FFE778
:104AC000FFE7FFE7FFE71898401C1890C1E68EE16A
:104AD000F4488078012803D1FFE7F6481E901DE0D6
:104AE000F0488078022803D1FFE7F1481E9014E0D7
:104AF000EC488078032803D1FFE7EC481E900BE0D8
:104B0000E8488078042806D1FFE7E7481E90E4498A
:104B100000200870FFE7FFE7FFE7FFE71E98E64980
:104B20004158DD48405C00B94BE11AA902200870E9
:104B3000FFE71AA800781E99E44A895C884212DAD5
:104B4000FFE71E981AA909784018E949405C20B986
:104B5000FFE719A900200870FFE7FFE71A98401C3B
:104B60001AA90870E5E719A8007800B916E11E989F
:104B7000D14A8058D74909688958884200D1FAE05B
:104B80001E98D249405C012800DADEE01E98CF4929
:104B9000405C1AA90870FFE71AA80078012875DBA5
:104BA000FFE71A9881301DA90870BA4A00201060EA
:104BB000CD4A10601E98CD4A8058022203F0AEF90B
:104BC000FFE7B448006801284CD0FFE71E98C749AA
:104BD0004058C069C007002843D031E08179000007
:104BE000100E0020D4430020180E0020420E00209A
:104BF000D0120020101F0020502B002090370020E2
:104C000088090000BC0B0000B80B000058120020FF
:104C1000380C0000140E002045120020440E002025
:104C200036040100A0000100E0490040E4490040D2
:104C3000E8490040EC49004019FA00004412002005
:104C40001E98AA49405800681BA908701A98401E6F
:104C50001AA908708F4901200860A3490020086044
:104C6000FFE7AEE71BA8007878B9FFE71E981AAAFD
:104C7000117841189E4B0020C8541A99491E117092
:104C80008449086098490860FFE785E719A800781B
:104C9000012859D1FFE789480078022841D1FFE770
:104CA0001E9985480B900A581E990B781E99095831
:104CB000794E715C0A911E99844D495D1E9C247841
:104CC000091B1E9C24581E9F3F580A98F75D0397A6
:104CD0000294019100907A480C90814908F02AFFD3
:104CE0000C9801F077F90B981E990A581E990B78C9
:104CF0001E990958715C1E9C645D1E9D2D78641B75
:104D00001E9D2D581E9F3F580C98F65D03960295E8
:104D100001940091734908F00DFF0C9801F05AF9C5
:104D2000FFE71E99694A08920020099088541E994D
:104D300008701E9805F006FB089B014609981E9A0C
:104D4000D15457490870FFE714E05C480078022806
:104D50000CD1FFE71E9858494258594807905F49BF
:104D600008F0E8FE079801F035F9FFE75649002002
:104D70000870FFE711E051480078022809D1FFE7E9
:104D80004F480690544908F0D5FE069801F022F9E4
:104D9000FFE74D490020087078E011E047480078AF
:104DA000022809D1FFE746480590494908F0C2FEAC
:104DB000059801F00FF9FFE7434900200870FFE76D
:104DC00014E03E48007802280CD1FFE71E983A49CB
:104DD00042583B4804903B4908F0ACFE049801F06F
:104DE000F9F8FFE7384900200870FFE7FFE72B4993
:104DF0000020086015A90881169015908120087080
:104E00007E2048702B483149405C022807DBFFE7D1
:104E100028482E49405C401E15A9887003E015A95A
:104E200000208870FFE722482849405C022807DB01
:104E3000FFE71F482549405C401E15A9C87003E0E4
:104E400015A90020C870FFE718482049405C0228D7
:104E500007DBFFE715481D49405C401E15A9087196
:104E600003E015A900200871FFE70F481749405CCF
:104E7000022807DBFFE70C481449405C401E15A9D7
:104E8000487103E015A900204871FFE71FB0F0BD8D
:104E9000CFFA0000100E0020D4430020180E00208E
:104EA000420E00208B12002090370020502B002053
:104EB000101F0020D0120020B80B00004512002067
:104EC000440E0020A7FA00004412002088090000C8
:104ED000CFFA00005812002019FA00006FFA000003
:104EE00076040100A0000100140E0020380C000020
:104EF000BC0B00000149012008607047F8300440F5
:104F000084B0039002910192009303980299890062
:104F1000411880228858074B18408850019B009800
:104F20000343039802998900411888581843885010
:104F300004B07047C0FFE0FF84B0029001911448B4
:104F4000006800900299086D40F2001290430865D5
:104F5000019802990A6D1043012210430865FFE78A
:104F6000029840F210114058C00750B9FFE700986E
:104F7000401E009020B9FFE70120C043039003E0EA
:104F8000EEE700200390FFE7039804B07047C046A7
:104F90001400002084B00390029101920020009040
:104FA000FFE700980F2818D8FFE702980099C8403B
:104FB000C00768B1FFE70398006800994A00032121
:104FC0009140884301999140084303990860FFE7A5
:104FD000FFE70098401C0090E3E704B07047000032
:104FE00010B59AB0FC48039080210A9101221792D3
:104FF000FFF7D0FF0398179A40210B91FFF7CAFFE4
:105000000398179A20210C91FFF7C4FF0398179A71
:1050100010210D91FFF7BEFF0398179A02211091FE
:10502000FFF7B8FF0398179A1146FFF7B3FF179AD7
:10503000EA49002019900860E9490860E9490860D8
:10504000E9490860E9490860E9490860E9480290CF
:1050500040F200110491FFF79DFF0298179A40F269
:1050600000210691FFF796FF0298179A40F200413F
:105070000791FFF78FFF0298179A40F600010891F9
:10508000FFF788FF179ADC48119044F20001149151
:10509000FFF780FF179A1998D8490860D849086027
:1050A000D8490860D8490860D8490860D8480090B5
:1050B00041F200011291FFF76DFF0098179A42F23A
:1050C00000011391FFF766FF00981499179AFFF7F4
:1050D00061FF0098179A48F200011691FFF75AFFF6
:1050E00000980899179A199BCA4C2360CA4C2360F0
:1050F000CA4C2360CA4C2360FFF74CFF1399179AE0
:105100001998C84B1860C8480590FFF743FF0499E9
:10511000179A1998FC4B1860FC481590FFF73AFF56
:1051200006991598179AFFF735FF07991598179A5A
:10513000FFF730FF08991598179AFFF72BFF119882
:105140001299179AFFF726FF179A1998F0490860E5
:10515000F0490860F0490860F0490860F04918918A
:105160000860F048099004210F91FFF713FF099898
:10517000179A08210E91FFF70DFF09980D99179ABC
:10518000FFF708FF0899179A1998E74B1860E74B43
:105190001860E74B1860E7480190FFF7FBFE0198A5
:1051A0000799179AFFF7F6FE01980699179AFFF7E5
:1051B000F1FE01980499179AFFF7ECFE01980A99FD
:1051C000179AFFF7E7FE01980B99179AFFF7E2FE8F
:1051D00001980C99179A199BD74C2360D74C2360E0
:1051E000D74C2360D74C2360D74C2360D74C236027
:1051F000FFF7D0FE01980D99179AFFF7CBFE0298A2
:105200000D99179A199BD24C2360D24C2360FFF75B
:10521000C1FE02980C99179AFFF7BCFE02980B99F1
:10522000179AFFF7B7FE02980A99179AFFF7B2FE8E
:1052300003980499179A199BC74C2360C74C2360A5
:10524000C74C2360C74C2360FFF7A4FE0398069960
:10525000179AFFF79FFE03980799179AFFF79AFE90
:1052600003980899179AFFF795FE03981299179AD1
:10527000FFF790FE05980B99179AFFF78BFE05989C
:105280000A99179AFFF786FE0B991598179AFFF758
:1052900081FE0A991598179AFFF77CFE0D991598CB
:1052A000179A199BB04C2360B04C2360B04C23601C
:1052B000B04C2360B04C2360B04C2360B04C2360F2
:1052C000B04C2360B04C2360FFF764FE0C99159836
:1052D000179AFFF75FFE10991598179AFFF75AFE75
:1052E0001598179A1146FFF755FE03981499179AC7
:1052F000199BA64C2360A64C2360A64C2360A64CA9
:105300002360FFF747FE03981699179AFFF742FEAE
:1053100004991198179A199BA04C2360A04C236004
:10532000FFF738FE06991198179AFFF733FE059894
:105330000C99179AFFF72EFE05980D99179AFFF70B
:1053400029FE05980E99179AFFF724FE05980F99E4
:10535000179AFFF71FFE05981099179AFFF71AFE84
:105360000598179A1146FFF715FE06990998179A9E
:10537000199B8C4C23608C4C23608C4C23608C4C90
:1053800023608C4C23608C4C23608C4C23608C4CB1
:105390002360FFF7FFFD07990998179AFFF7FAFDB9
:1053A00008990998179AFFF7F5FD09981299179A25
:1053B000FFF7F0FD09981399179AFFF7EBFD09988D
:1053C0001499179AFFF7E6FD09981699179AFFF7AF
:1053D000E1FD0A992AE0C046004100401C49004016
:1053E0001849004014490040104900400449004059
:1053F00000490040C0410040C0400040E04900403A
:10540000E4490040E8490040EC490040F8480040C9
:10541000404000407C4800407848004074480040CC
:10542000704800406C480040804000401198179A36
:10543000FFF7B0FD0B991198179AFFF7ABFD0C9988
:105440001198179AFFF7A6FD0D991198179AFFF773
:10545000A1FD0E991198179AFFF79CFD0F991198CD
:10546000179AFFF797FD10991198179AFFF792FD79
:105470001198179A1146FFF78DFD11981399179AF5
:10548000FFF788FD12991598179AFFF783FD139976
:105490001598179AFFF77EFD14991598179AFFF73C
:1054A00079FD15981699179AFFF774FD189A1998AF
:1054B0001060444908604449086044490860444910
:1054C0000860444B1860444B1860444B1860444BD0
:1054D0001860444B1860444B1860444B1860444BB0
:1054E00018601060434A1060434A1060434A1060DD
:1054F000434A1060434A1060434A1060434A1060B8
:1055000008601AB010BDC046B448004000400040DA
:105510002048004024480040284800402C480040D3
:105520003048004080410040884900408C4900409C
:105530009049004040410040584900405C490040CB
:105540006049004064490040684900406C4900409F
:105550005049004054490040D0490040D4490040DF
:10556000D8490040DC49004020490040244900401F
:10557000284900402C4900403049004098480040EC
:105580009C480040184800401C4800400448004027
:105590000048004010480040144800403C4900408A
:1055A00038490040E0480040E4480040944800404A
:1055B000904800408C4800408848004084480040A3
:1055C0008048004034480040384800403C48004093
:1055D000DC480040D8480040D4480040D048004053
:1055E000CC480040C8480040C4480040C048004083
:1055F000F4480040A4490040A8490040AC4900409C
:10560000B0490040B4490040B8490040BC4900409E
:1056100080B588B000200790F748407880B3FFE756
:1056200000F0D8FE0A46F6494A60086008684968F2
:10563000764A774BFBF7AEF8E0B9FFE7754800F024
:1056400017F90798401C0790EC480078022810D101
:10565000FFE7EC480690704908F06CFA069800F0F5
:10566000B9FC0698E94908F065FA069800F0B2FC22
:10567000FFE7FFE77D4840F2D07102F05DF8FFE7F9
:10568000DD48807880B3FFE700F01AFF0A466349DF
:105690004A600860086849685C4A5D4BFBF77AF825
:1056A000E0B9FFE75E4800F0E3F80798401C079078
:1056B000D2480078022810D1FFE7D2480590594916
:1056C00008F038FA059800F085FC0598CF4908F0F5
:1056D00031FA059800F07EFCFFE7FFE7634840F2EF
:1056E000D07102F029F8FFE7C348C07880B3FFE724
:1056F00000F048FF0A464C494A600860086849685B
:10570000424A434BFBF746F8E0B9FFE7474800F051
:10571000AFF80798401C0790B8480078022810D1CD
:10572000FFE7B8480490424908F004FA049800F0F2
:1057300051FC0498B54908F0FDF9049800F04AFCC2
:10574000FFE7FFE7494840F2D07101F0F5FFFFE7BE
:10575000A948007980B3FFE700F076FF0A46354993
:105760004A60086008684968284A294BFBF712F824
:10577000E0B9FFE7304800F07BF80798401C07903D
:105780009E480078022810D1FFE79E4803902B49DD
:1057900008F0D0F9039800F01DFC03989B4908F02D
:1057A000C9F9039800F016FCFFE7FFE72F4840F225
:1057B000D07101F0C1FFFFE7079878B9FFE78F4884
:1057C0000078022809D1FFE78E4802901D4908F0B1
:1057D000B1F9029800F0FEFBFFE715E0874800787A
:1057E000022810D1FFE787480190154908F0A2F977
:1057F000019800F0EFFB0198844908F09BF90198AB
:1058000000F0E8FBFFE7FFE708B080BD9A9999999F
:105810009999B93FD01200200DF70000280E002002
:10582000101F002061F70000300E0020502B0020D8
:10583000B5F70000380E00209037002009F800006E
:10584000D9F60000B9F5000080B584B003AB18703C
:1058500002910192044900200860044840F22C1192
:1058600001F06AFF04B080BDE4480040000105403B
:1058700010B588B0079007985D494058012828D195
:10588000FFE75C49002008605B4948705B4800788E
:1058900002281DD1FFE70798F54C02595849079B8C
:1058A000086849681C59544B1B5D02930191009094
:1058B00054480690544908F03DF9069800F08AFBD8
:1058C0000698524908F036F9069800F083FBFFE786
:1058D000FFE70798E6494058022828D1FFE74C49DE
:1058E00000200860444988704448007802281DD18F
:1058F000FFE70798DE4C02594149079B0868496851
:105900001C593D4B1B5D0293019100903D48059051
:10591000404908F00FF9059800F05CFB05983B49F9
:1059200008F008F9059800F055FBFFE7FFE7079836
:10593000CF494058032828D1FFE7374900200860A5
:105940002D49C8702D48007802281DD1FFE707981F
:10595000C74C02592A49079B086849681C59264BBD
:105960001B5D02930191009026480490264908F09F
:10597000E1F8049800F02EFB0498244908F0DAF8C6
:10598000049800F027FBFFE7FFE70798B849405865
:10599000042828D1FFE72149002008601649087132
:1059A0001648007802281DD1FFE70798B04C02592D
:1059B0001349079B086849681C590F4B1B5D0293EC
:1059C000019100900F4803900F4908F0B3F8039835
:1059D00000F000FB03980D4908F0ACF8039800F0C4
:1059E000F9FAFFE7FFE79D490020087008B010BDF5
:1059F000B80B0000E0490040D443002045120020CD
:105A0000200E0020440E0020A6030100ABF600008B
:105A1000E449004061030100E8490040EC490040CE
:105A200084B0039000200290022001900398006847
:105A30000E2108400090039800688843039908608D
:105A40000398006A000400280FD4FFE70298410081
:105A50001848405C40B9FFE7029842001549012010
:105A6000885400200190FFE7FFE70198022818D131
:105A7000FFE70398802140580004002810D4FFE776
:105A8000029841000B484018407840B9FFE702985F
:105A9000410008484118012048700190FFE7FFE7E6
:105AA000FFE7009A0399086810430860019804B062
:105AB0007047C046CC12002080B584B0039000200F
:105AC0000290FFE70298000F68B9FFE70398FFF71D
:105AD000A7FF0190022801D0FFE704E0FFE702984A
